:100000000C949D000C94BA000C94BA000C94BA00A5
:100010000C94BA000C94BA000C94BA000C94BA0078
:100020000C94BA000C94BA000C94BA000C94BA0068
:100030000C94BA000C94BA000C94BA000C94BA0058
:100040000C94BA000C94BA000C94BA000C94BA0048
:100050000C94BA000C94BA000C94BA000C94BA0038
:100060000C94BA000C94BA000C94BA000C94BA0028
:100070000C94BA000C94BA000C94BA000763423690
:10008000B79BD8A71A39685618AEBAAB558C1D3C29
:10009000B7CC5763BD6DEDFD753EF6177231BF00ED
:1000A0000000803F08000000BE922449123EABAA27
:1000B000AA2ABECDCCCC4C3E00000080BEABAAAA82
:1000C000AA3E00000000BF000000803F00000000CA
:1000D00000084178D3BB4387D1133D190E3CC3BD03
:1000E0004282AD2B3E68EC8276BED98FE1A93E4CB0
:1000F00080EFFFBE01C4FF7F3F00000000004E41C3
:100100004E494E495459494E46CDCCCC3D0AD72391
:100110003C17B7D13877CC2B329595E6241FB14FD9
:100120000A000020410000C84200401C4620BCBE1E
:100130004CCA1B0E5AAEC59D740011241FBECFEFD2
:10014000D8E0DEBFCDBF11E0A0E0B1E0E4E9F8E126
:1001500002C005900D92A233B107D9F721E0A2E3C6
:10016000B1E001C01D92A433B207E1F70E94F8018B
:100170000C94480C0C94000098B19F70282F207F9D
:10018000922B98B998B19E7F98B998B1926098B91E
:1001900032E03A95F1F700C098B19D7F98B9EFE849
:1001A000F1E03197F1F700C0000028B1F0E18F9F36
:1001B000C0011124922F9F70892B88B988B1826069
:1001C00088B932E03A95F1F700C088B18D7F88B9DF
:1001D0008FE99FE00197F1F700C00000089598B102
:1001E0009F70282F207F922B98B998B1916098B971
:1001F00098B1926098B932E03A95F1F700C098B1A1
:100200009D7F98B9EFE8F1E03197F1F700C0000069
:1002100028B1F0E18F9FC0011124922F9F70892B8C
:1002200088B988B1826088B932E03A95F1F700C0A8
:1002300088B18D7F88B98FE99FE00197F1F700C001
:10024000000008958FEF87B98FE39CE90197F1F7DC
:1002500000C0000082E00E94BC0088E20E94BC0056
:100260008CE00E94BC0081E00E94BC008FE99FE00E
:100270000197F1F700C000000895CF93DF93EC01E0
:1002800003C021960E94EF0088818111FACFDF918F
:10029000CF9108958FE081B98FEF82B9089560E022
:1002A00070E040C081E090E0062E02C0880F991FE8
:1002B0000A94E2F7809582B98AE18A95F1F700C045
:1002C00020E030E02AC080B1A9014C5F5F4F90E090
:1002D000042E02C0959587950A94E2F780FD1BC015
:1002E00080B190E0042E02C0959587950A94E2F7BC
:1002F00080FFF6CF8FE39CE90197F1F700C0000083
:10030000660F771F660F771F60507F4FFB01E20F6C
:10031000F31F808108952F5F3F4F243031059CF2F9
:100320006F5F7F4F643071050CF4BCCF80E008959F
:100330008F929F92AF92BF92CF92DF92EF92FF92F5
:100340000F931F93CF93DF93CDB7DEB760970FB6B0
:10035000F894DEBF0FBECDBF4B015C010E94A70425
:100360006B017C01072E000C880B990B0E94DF04A7
:100370009B01AC01C501B4010E94C3039F7720E03B
:1003800030E04AE754E40E948F050E94A7047F935F
:100390006F93DF92CF9280E191E09F938F938E01D4
:1003A0000F5F1F4F1F930F930E94D207C8010E9437
:1003B0003D010FB6F894DEBF0FBECDBF60960FB6FD
:1003C000F894DEBF0FBECDBFDF91CF911F910F918B
:1003D000FF90EF90DF90CF90BF90AF909F908F9065
:1003E000089584B1887F84B985B1876085B90895FF
:1003F000CF93DF93CDB7DEB764970FB6F894DEBF27
:100400000FBECDBF0E9422010E944A010E94F1014D
:100410001A821982FE0133968EE0DF011D928A95C1
:10042000E9F788E191E00E943D01BFEF29E688E10C
:10043000B15020408040E1F700C0000081E00E9400
:10044000BC00D12C712C812C912CC12C198A1A8AB8
:100450001B8A1C8AE12CF12C00E010E0A12CB12CAD
:100460001A992BC01A9BFECFAFE3BCE91197F1F7A5
:1004700000C00000198281E00E94BC0088E191E088
:100480000E943D01BFEF24E38CE0B150204080404A
:10049000E1F700C0000081E00E94BC00D12C712C6B
:1004A000812C912CC12C198A1A8A1B8A1C8AE12C56
:1004B000F12C00E010E0A12CB12C189950C0189B31
:1004C000FECFAFE3BCE91197F1F700C000008981CE
:1004D000882341F0CE0101960E94CE07E62EF72E2A
:1004E000082F192F20E030E0A9016E2D7F2D802FDD
:1004F000912F0E9430048823A4F481E00E94BC0064
:1005000081E291E00E943D01BFEF2EE984E2B1500B
:1005100020408040E1F700C0000081E00E94BC0064
:100520001BC06E2D7F2D802F912F0E945206E62E2C
:10053000F72E082F192F80EC0E94BC008CE291E06E
:100540000E943D016E2D7F2D802F912F0E949801DA
:100550007E2C8F2C902EC12E1982A12CB12C199992
:1005600020C0199BFECFAFE3BCE91197F1F700C0A3
:1005700000008981882341F0CE0101960E94CE07B8
:10058000E62EF72E082F192F198281E00E94BC0059
:100590008EE50E94EF000F2EFEE5DF2EF02DA12C40
:1005A000B12C0E944F01682E882309F459CF80EDA9
:1005B000860D8A3018F0BEE26B1220C02FE0A21622
:1005C000B1040CF04DCF25018FEF481A580AE1E035
:1005D000F0E0EC0FFD1FEA0DFB1D6082E1E0F0E0B2
:1005E000EC0FFD1FE40DF51D108281E00E94BC00A0
:1005F000CE0101960E943D01520132CF9BE2691665
:1006000049F0ADE26A1631F0BAE26B1619F02FE24A
:10061000621216C08981882341F0CE0101960E94A2
:10062000CE07E62EF72E082F192F198281E00E949F
:10063000BC00862D0E94EF00D62CA12CB12C10CF2F
:100640008DE368120DCF8981882341F0CE01019698
:100650000E94CE07698B7A8B8B8B9C8B9DE2D9167F
:1006600001F19D1538F0AAE2DA1651F1BBE2DB1672
:1006700049F074C02FE2D21691F18EE5D81609F434
:100680005FC06CC029893A894B895C896E2D7F2DAA
:10069000802F912F0E94C403762E872E982EC92E6C
:1006A0005DC029893A894B895C896E2D7F2D802F09
:1006B000912F0E94C303762E872E982EC92E4EC0EE
:1006C00029893A894B895C896E2D7F2D802F912F46
:1006D0000E948F05762E872E982EC92E3FC020E0CF
:1006E00030E0A90169897A898B899C890E9430044C
:1006F000811117C081E00E94BC0081E291E00E945C
:100700003D019FEFAEE9B4E29150A040B040E1F767
:1007100000C0000081E00E94BC001982A12CB12C15
:100720009FCE29893A894B895C896E2D7F2D802F38
:10073000912F0E943504762E872E982EC92E0EC03A
:1007400029893A894B895C896E2D7F2D802F912FC5
:100750000E94FC05762E872E982EC92E80EC0E94D2
:10076000BC008CE291E00E943D01672D782D892D1F
:100770009C2D0E9498011982E72CF82C092D1C2D24
:10078000A12CB12C6DCE5058BB27AA270E94DB03A9
:100790000C9455050E94470538F00E944E0520F044
:1007A00039F49F3F19F426F40C9444050EF4E095B7
:1007B000E7FB0C943E05E92F0E94660558F3BA1733
:1007C000620773078407950720F079F4A6F50C9467
:1007D00088050EF4E0950B2EBA2FA02D0B01B90160
:1007E00090010C01CA01A0011124FF27591B99F0A7
:1007F000593F50F4503E68F11A16F040A22F232FB3
:10080000342F4427585FF3CF469537952795A79502
:10081000F0405395C9F77EF41F16BA0B620B730BA9
:10082000840BBAF09150A1F0FF0FBB1F661F771F1A
:10083000881FC2F70EC0BA0F621F731F841F48F4CF
:10084000879577956795B795F7959E3F08F0B0CF58
:100850009395880F08F09927EE0F9795879508953F
:100860000E941A0508F481E008950E9449040C943E
:1008700055050E944E0558F00E94470540F029F4A6
:100880005F3F29F00C943E0551110C9489050C949E
:1008900044050E94660568F39923B1F3552391F34B
:1008A000951B550BBB27AA2762177307840738F0DF
:1008B0009F5F5F4F220F331F441FAA1FA9F335D03C
:1008C0000E2E3AF0E0E832D091505040E695001CF0
:1008D000CAF72BD0FE2F29D0660F771F881FBB1FAA
:1008E000261737074807AB07B0E809F0BB0B802D88
:1008F000BF01FF2793585F4F3AF09E3F510578F0B4
:100900000C943E050C9489055F3FE4F3983ED4F3C4
:10091000869577956795B795F7959F5FC9F7880F87
:10092000911D9695879597F90895E1E0660F771FD9
:10093000881FBB1F621773078407BA0720F0621B6A
:10094000730B840BBA0BEE1F88F7E09508950E9495
:10095000AE046894B1110C94890508950E946E0547
:1009600088F09F5798F0B92F9927B751B0F0E1F070
:10097000660F771F881F991F1AF0BA95C9F714C020
:10098000B13091F00E948805B1E008950C9488057B
:10099000672F782F8827B85F39F0B93FCCF3869559
:1009A00077956795B395D9F73EF4909580957095B6
:1009B00061957F4F8F4F9F4F0895E89409C097FB33
:1009C0003EF490958095709561957F4F8F4F9F4F26
:1009D0009923A9F0F92F96E9BB279395F69587956A
:1009E00077956795B795F111F8CFFAF4BB0F11F42D
:1009F00060FF1BC06F5F7F4F8F4F9F4F16C08823D4
:100A000011F096E911C0772321F09EE8872F762F09
:100A100005C0662371F096E8862F70E060E02AF04A
:100A20009A95660F771F881FDAF7880F9695879536
:100A300097F90895990F0008550FAA0BE0E8FEEF0B
:100A400016161706E807F907C0F012161306E40792
:100A5000F50798F0621B730B840B950B39F40A268B
:100A600061F0232B242B252B21F408950A2609F469
:100A7000A140A6958FEF811D811D089597F99F676D
:100A800080E870E060E008959FEF80EC0895002416
:100A90000A941616170618060906089500240A94E3
:100AA00012161306140605060895092E0394000C69
:100AB00011F4882352F0BB0F40F4BF2B11F460FFF8
:100AC00004C06F5F7F4F8F4F9F4F089557FD905821
:100AD000440F551F59F05F3F71F04795880F97FB02
:100AE000991F61F09F3F79F08795089512161306BC
:100AF0001406551FF2CF4695F1DF08C016161706EB
:100B00001806991FF1CF869571056105089408951F
:100B1000E894BB2766277727CB0197F908950E94B1
:100B2000A2050C9455050E94470538F00E944E0519
:100B300020F0952311F00C943E050C9444051124EB
:100B40000C9489050E94660570F3959FC1F3950F7B
:100B500050E0551F629FF001729FBB27F00DB11D41
:100B6000639FAA27F00DB11DAA1F649F6627B00DD1
:100B7000A11D661F829F2227B00DA11D621F739FBA
:100B8000B00DA11D621F839FA00D611D221F749FC8
:100B90003327A00D611D231F849F600D211D822F0F
:100BA000762F6A2F11249F5750409AF0F1F0882336
:100BB0004AF0EE0FFF1FBB1F661F771F881F915063
:100BC0005040A9F79E3F510580F00C943E050C94CF
:100BD00089055F3FE4F3983ED4F386957795679552
:100BE000B795F795E7959F5FC1F7FE2B880F911D8D
:100BF0009695879597F90895FA01EE0FFF1F3096A5
:100C000021053105A1F16115710561F48038BFE35B
:100C10009B0749F168949038810561F08038BFEFF7
:100C20009B0741F099234AF5FF3FE1053105210576
:100C300019F1E8940894E795D901AA2329F4AB2F78
:100C4000BE2FF85FD0F310C0FF5F70F4A695E0F7F9
:100C5000F73950F019F0FF3A38F49F779F930DD091
:100C60000F9007FC9058089546F00C94440560E0FE
:100C700070E080E89FE308954FE79F775F934F937D
:100C80003F932F930E9452072F913F914F915F9175
:100C90000E948F050C949A0619F416F40C944405DE
:100CA0000C94CC060E946E05B8F39923C9F3B6F3F1
:100CB0009F57550B87FF0E94DA060024A0E640EA02
:100CC000900180585695979528F4805C660F771FA1
:100CD000881F20F026173707480730F4621B730B74
:100CE000840B202931294A2BA69517940794202597
:100CF00031254A2758F7660F771F881F20F02617DF
:100D00003707480730F4620B730B840B200D311D3D
:100D1000411DA09581F7B901842F9158880F9695B0
:100D20008795089529F416F00C943E050C948805D7
:100D30000C9444050E946E05A8F39638A0F707F8B6
:100D40000F92E8942BE33AEA48EB5FE70E94A5058F
:100D50000F920F920F924DB75EB70F920E949A07B3
:100D6000ECE7F0E00E94E1064F915F91EF91FF9177
:100D7000E595EE1FFF1F49F0FE57E0684427EE0F90
:100D8000441FFA95E1F74195550B0E9414070F9007
:100D900007FE0C94080708959F3F31F0915020F40E
:100DA000879577956795B795880F911D9695879547
:100DB00097F9089591505040660F771F881FD2F71A
:100DC0000895DF93CF931F930F93FF92EF92DF92DB
:100DD0007B018C01689406C0DA2EEF010E94A20507
:100DE000FE01E894A5912591359145915591A6F381
:100DF000EF010E94DB03FE019701A801DA9469F775
:100E0000DF90EF90FF900F911F91CF91DF910895A8
:100E10009B01AC0160E070E080E89FE30C94350436
:100E20000C943E050C94CC060E946E05D8F39923D1
:100E3000C9F3940F511DA3F39150504094F059F011
:100E4000882332F0660F771F881F91505040C1F7FA
:100E50009E3F51052CF7880F911D9695879597F920
:100E600008955F3FACF0983E9CF0BB278695779540
:100E70006795B79508F4B1609395C1F7BB0F58F724
:100E800011F460FFE8CF6F5F7F4F8F4F9F4FE3CF2D
:100E90000C94890516F00C94CC060C9444056894C7
:100EA0000C943E050E946E05A8F39923C1F3AEF39E
:100EB000DF93CF931F930F93FF92C92FDD278823D2
:100EC0002AF02197660F771F881FDAF720E030E0BD
:100ED00040E85FEB9FE3883920F0803E38F02196B0
:100EE0008F770E94C403E4EAF0E004C00E94C403C8
:100EF000E1EDF0E00E94E1068B01BE01EC01FB2E6A
:100F00006F5771097595771F880B990B0E94DF0445
:100F100028E132E741E35FE30E94A205AF2D98018B
:100F2000AE01FF900F911F91CF91DF910E94DB03E3
:100F30000C945505FA01DC01AA0FBB1F9B01AC0103
:100F4000BF5728F4222733274427507820C0B751B1
:100F500090F4AB2F0024469537952795011CA39557
:100F6000D2F3002071F0220F331F441FB395DAF340
:100F70000ED00C94C30361307105A0E88A07B9460E
:100F800030F49B01AC01662777278827907830964C
:100F900021F0208331834283538308956627772786
:100FA0000C94D509AEE0B0E0E8EDF7E00C94100C3D
:100FB0000D891E8986E08C831A8309838FEF9FE752
:100FC0009E838D83AE01475E5F4F6F89788DCE0122
:100FD00001960E94F407EF81F885E00FF11F10825F
:100FE0002E96E4E00C942C0CABE0B0E0EAEFF7E0D6
:100FF0000C94020C6C017B018A01FC0117821682A1
:10100000838181FFCCC1CE0101963C01F601938121
:10101000F70193FD859193FF81917F01882309F466
:10102000BAC1853239F493FD859193FF81917F0197
:10103000853229F4B60190E00E945A0BE7CF912C3B
:10104000212C312CFFE1F315D8F08B3279F038F4F4
:10105000803279F08332A1F4232D20611DC08D32BE
:1010600061F0803369F4232D216016C0832D8260E6
:10107000382EE32DE4603E2E2AC0F32DF8601DC00B
:1010800037FC2DC020ED280F2A3040F08E32B9F405
:1010900036FC81C1232D2064322E19C036FE06C0D5
:1010A0008AE0989E200D1124922E11C0EAE02E9E17
:1010B000200D1124222EF32DF0623F2E08C08C3615
:1010C00021F4832D8068382E02C0883641F4F70160
:1010D00093FD859193FF81917F018111B3CF982F6B
:1010E0009F7D9554933028F40C5F1F4F9FE39983A5
:1010F0000DC0833631F0833771F0833509F059C064
:1011000021C0F801808189830E5F1F4F882483945A
:10111000912C530113C02801F2E04F0E511CF8012D
:10112000A080B18036FE03C0692D70E002C06FEF71
:101130007FEFC5010E944F0B4C018201F32DFF7719
:101140003F2E16C0280122E0420E511CF801A0805B
:10115000B18036FE03C0692D70E002C06FEF7FEFF3
:10116000C5010E94440B4C01F32DF0683F2E820113
:1011700033FC1BC0822D90E088169906B0F4B601AE
:1011800080E290E00E945A0B2A94F4CFF50137FCDC
:10119000859137FE81915F01B60190E00E945A0B64
:1011A00021102A9421E0821A91088114910471F788
:1011B000E8C0843611F0893641F5F80137FE07C0E2
:1011C00060817181828193810C5F1F4F08C06081B3
:1011D0007181072E000C880B990B0E5F1F4FF32DAA
:1011E000FF763F2E97FF09C0909580957095619589
:1011F0007F4F8F4F9F4FF0683F2E2AE030E0A301D2
:101200000E94960B882E861845C0853731F4232D11
:101210002F7EB22E2AE030E025C0932D997FB92E83
:101220008F36C1F018F4883579F0B5C0803719F0E1
:10123000883721F0B0C0E92FE061BE2EB4FE0DC0AA
:10124000FB2DF460BF2E09C034FE0AC0292F266092
:10125000B22E06C028E030E005C020E130E002C038
:1012600020E132E0F801B7FE07C060817181828120
:1012700093810C5F1F4F06C06081718180E090E018
:101280000E5F1F4FA3010E94960B882E8618FB2D20
:10129000FF773F2E36FE0DC0232D2E7FA22E891400
:1012A00058F434FE0BC032FC09C0832D8E7EA82E6C
:1012B00005C0B82CA32C03C0B82C01C0B92CA4FEC7
:1012C0000FC0FE01E80DF11D8081803321F49A2DBD
:1012D000997EA92E09C0A2FE06C0B394B39404C09F
:1012E0008A2D867809F0B394A3FC11C0A0FE06C035
:1012F000B21488F4280C922C9B180EC0B21460F41F
:10130000B60180E290E00E945A0BB394F7CFB2147A
:1013100018F42B1802C0982C212CA4FE10C0B60182
:1013200080E390E00E945A0BA2FE17C0A1FC03C00C
:1013300088E790E002C088E590E0B6010CC08A2DF5
:10134000867859F0A1FE02C08BE201C080E2A7FCC2
:101350008DE2B60190E00E945A0B891438F4B60170
:1013600080E390E00E945A0B9A94F7CF8A94F3019D
:10137000E80DF11D8081B60190E00E945A0B8110AA
:10138000F5CF222009F442CEB60180E290E00E941F
:101390005A0B2A94F6CFF6018681978102C08FEF0F
:1013A0009FEF2B96E2E10C941E0CA0E0B0E0EBED79
:1013B000F9E00C94080CEC016B016115710519F052
:1013C000FB01918380837E01FFEFEF1AFF0A088102
:1013D000802F90E00E94230B892B11F0E701F3CFBF
:1013E0000D3239F47E0182E0E80EF11C098111E032
:1013F00008C00B3229F47E0192E0E90EF11C09814C
:1014000010E0E701219743E050E066E071E0CE0193
:101410000E942C0B892BC1F4239645E050E061E03B
:1014200071E0CE010E942C0B892B09F42596C11482
:10143000D10419F0F601D183C0831111F6C060E028
:1014400070E080E89FE7FAC043E050E06EEF70E0A4
:10145000CE010E942C0B892B59F4C114D10409F43C
:10146000E9C0F2E0EF0EF11CF601F182E082E2C089
:1014700020E030E0A901C0E0D0E0F70180EDA82E27
:10148000A00E89E08A1530F1912F9260B92E812F3C
:10149000887012FF04C0811124C0219622C08111DE
:1014A0002197A5E0B0E00E94F70BDC01CB01880F8B
:1014B000991FAA1FBB1F9C01AD012A0D311D411DA3
:1014C000511D283989E93807480789E1580748F04C
:1014D000166006C09EEFA9120AC013FD40C0186036
:1014E000B12E8FEFE81AF80A00811B2DC6CF802F8E
:1014F0008F7D8534A1F580818D3211F4106106C095
:101500008B3221F0319661E070E004C08181329627
:1015100062E070E080538A3018F0E61BF70B1FC0C2
:1015200060E070E060389CE079075CF4DB01AA0FB2
:10153000BB1FAA0FBB1F6A0F7B1F660F771F680FA9
:10154000711D3196DF0111978C9180538A3050F3D1
:1015500014FF03C0719561957109C60FD71F11FF64
:1015600008C0C114D10429F0CF010197F60191837D
:101570008083CA01B9010E94DD04212F237023302A
:1015800019F04B015C0106C04B015C01B7FAB09445
:10159000B7F8B09420E030E0A901C501B4010E9481
:1015A0003004882309F43EC0D7FF06C0D195C19509
:1015B000D1090DE111E002C005E311E06801F8E195
:1015C000CF1AD10890E2E92EF12CCE15DF0574F088
:1015D000F8012591359145915491C501B4010E94BE
:1015E0008F054B015C01CE19DF09EFCF04501109C3
:1015F000F594E7940C151D0541F78A2D880F8B2D66
:10160000881F8F3F49F020E030E0A901C501B401F7
:101610000E943004811106C082E290E09093330171
:1016200080933201C501B40109C060E070E080E838
:101630009FEF04C060E070E080EC9FE7CDB7DEB7BD
:10164000ECE00C94240C91110C94F40B803219F002
:1016500089508550C8F70895FB01DC014150504086
:1016600088F08D9181341CF08B350CF4805E65918F
:1016700061341CF06B350CF4605E861B611171F3F4
:10168000990B0895881BFCCFFC01059061507040B8
:101690000110D8F7809590958E0F9F1F0895FC013B
:1016A0006150704001900110D8F7809590958E0F91
:1016B0009F1F08950F931F93CF93DF93FB01238107
:1016C00021FD03C08FEF9FEF2CC022FF16C0468183
:1016D0005781248135814217530744F4A081B18199
:1016E0009D012F5F3F4F318320838C93268137816B
:1016F0002F5F3F4F3783268314C08B01EC01FB0122
:101700000084F185E02D0995892BE1F6D801169624
:101710008D919C911797019617969C938E9316978F
:10172000CE01DF91CF911F910F910895FA01AA2761
:10173000283051F1203181F1E8946F936E7F6E5F14
:101740007F4F8F4F9F4FAF4FB1E03ED0B4E03CD0C2
:10175000670F781F891F9A1FA11D680F791F8A1FA5
:10176000911DA11D6A0F711D811D911DA11D20D00C
:1017700009F468943F912AE0269F11243019305DC6
:101780003193DEF6CF010895462F4770405D4193B7
:10179000B3E00FD0C9F7F6CF462F4F70405D4A3304
:1017A00018F0495D31FD4052419302D0A9F7EACFCC
:1017B000B4E0A6959795879577956795BA95C9F7FB
:1017C00000976105710508959B01AC010A2E0694EE
:1017D0005795479537952795BA95C9F7620F731FA7
:1017E000841F951FA01D08959927882708950E949A
:1017F000390CA59F900DB49F900DA49F800D911D55
:10180000112408952F923F924F925F926F927F9290
:101810008F929F92AF92BF92CF92DF92EF92FF9200
:101820000F931F93CF93DF93CDB7DEB7CA1BDB0BAC
:101830000FB6F894DEBF0FBECDBF09942A88398851
:1018400048885F846E847D848C849B84AA84B98458
:10185000C884DF80EE80FD800C811B81AA81B98164
:10186000CE0FD11D0FB6F894DEBF0FBECDBFED0178
:101870000895A29FB001B39FC001A39F700D811D69
:101880001124911DB29F700D811D1124911D089589
:04189000F894FFCFFA
:101894002E2F2A3D38392B2D34353637303132331B
:1018A40025642E253033640052656164792E2E2E12
:1018B400004D617468204572726F7200416E733D11
:0218C400200002
:00000001FF
