S01700004763634170706C69636174696F6E322E737265635A
S11300000C94C9010C94E6010C94E6010C94E601ED
S11300100C94E6010C94E6010C94E6010C94E601C0
S11300200C94E6010C94E6010C94E6010C94E601B0
S11300300C94E6010C94E6010C94E6010C94E601A0
S11300400C94E6010C94E6010C94E6010C94E60190
S11300500C94E6010C94E6010C94E6010C94E60180
S11300600C94E6010C94E6010C94E6010C94E60170
S11300700C94E6010C94E6010C94E60105A84CCD21
S1130080B2D44EB93836A9020C50B9918688083CCE
S1130090A6AAAA2ABE000000803F08000000BE9263
S11300A02449123EABAAAA2ABECDCCCC4C3E0000B9
S11300B00080BEABAAAAAA3E00000000BF00000058
S11300C0803F0000000000084178D3BB4387D11370
S11300D03D190E3CC3BD4282AD2B3E68EC8276BE18
S11300E0D98FE1A93E4C80EFFFBE01C4FF7F3F00E2
S11300F0000000000664EC1B3C04BC163E3BE5B962
S11301003CC93C37C29E5A3D660498083EEA69AA37
S1130110AA3E000000803F07634236B79BD8A71A67
S113012039685618AEBAAB558C1D3CB7CC5763BD75
S11301306DEDFD753EF6177231BF000000803F0083
S11301404E414E494E495459494E46CDCCCC3D0AB8
S1130150D7233C17B7D13877CC2B329595E6241F9B
S1130160B14F0A000020410000C84200401C462054
S1130170BCBE4CCA1B0E5AAEC59D7400407A10F327
S11301805A00A0724E18090010A5D4E80000E876C1
S113019048170000E40B54020000CA9A3B00000018
S11301A0E1F505000080969800000040420F000031
S11301B000A08601000000102700000000E80300F2
S11301C00000006400000000000A000000000001BC
S11301D000000000002C76D888DC674F0823DFC1BC
S11301E0DFAE59E1B1B796E5E3E453C63AE6519977
S11301F07696E8E6C28426EB898C9B62ED407C6FA0
S1130200FCEFBC9C9F40F2BAA56FA5F490055A2A56
S1130210F75C936B6CF9676DC11BFCE0E40D47FE62
S1130220F520E6B500D0ED902E0300943577050057
S113023080841E080000204E0A000000C80C3333DE
S113024033330F986E12831141EF8D2114893BE6ED
S11302505516CFFEE6DB18D1844B381BF77C1D9076
S11302601DA4BBE424203284725E228100C9F124DF
S1130270ECA1E53D2700000000003E5149453E0049
S1130280427F400042615149462141454B31181497
S1130290127F1027454545393C4A494930017109C7
S11302A005033649494936064949291E7E1111116B
S11302B07E7F494949363E414141227F4141221CCA
S11302C07F494949417F090909013E4149497A7FEA
S11302D00808087F00417F41002040413F017F081A
S11302E01422417F404040407F020C027F7F04087B
S11302F0107F3E4141413E7F090909063E4151219B
S11303005E7F09192946464949493101017F0101A6
S11303103F4040403F1F2040201F3F4038403F6344
S11303201408146307087008076151494543080815
S11303303E0808080808080814083E080E00363667
S11303400000006060000014141414140036360019
S11303500004020102043E4141221848545454242A
S113036000447D40007C0804047838444444203828
S113037044444438043F4440202054545478001CDE
S11303802241000041221C0000417F40000C5252D7
S1130390523E11241FBECFEFD8E0DEBFCDBF11E027
S11303A0A0E0B1E0E4EEF2E202C005900D92AC3CB4
S11303B0B107D9F721E0ACECB1E001C01D92A03D3A
S11303C0B207E1F70E944D060C9470110C940000E2
S11303D0CF92DF92EF92FF920E94AF036B017C01F8
S11303E01EC0CF0101969093CD018093CC018081F2
S11303F08B3259F40E94AF039B01AC01C701B601D3
S11304000E94D8086B017C010AC00E94AF039B01C3
S1130410AC01C701B6010E94D7086B017C01E091D1
S1130420CC01F091CD0180818B32D9F28D32C9F2A9
S1130430C701B601FF90EF90DF90CF9008956F92BF
S11304407F928F929F92AF92BF92CF92DF92EF9260
S1130450FF920F931F93CF93DF93C091CC01D09160
S1130460CD0118811832C9F42196D093CD01C093DF
S1130470CC010E94E801E091CC01F091CD012081F2
S1130480293209F055C13196F093CD01E093CC01A6
S1130490562F472F382F292F4FC143E050E06CE2ED
S11304A071E0CE010E946D0D892BD1F42396D09377
S11304B0CD01C093CC010E941F022BED3FE049E423
S11304C050E40E94090B20E030E044E353E40E942E
S11304D04E090E94C60B562F472F382F292F2CC1A7
S11304E043E050E060E371E0CE010E946D0D892B82
S11304F0D1F42396D093CD01C093CC010E941F0266
S11305002BED3FE049E450E40E94090B20E030E089
S113051044E353E40E944E090E944909562F472F91
S1130520382F292F09C143E050E064E371E0CE0184
S11305300E946D0D892BD1F42396D093CD01C093E5
S1130540CC010E941F022BED3FE049E450E40E94DD
S1130550090B20E030E044E353E40E944E090E947A
S1130560140C562F472F382F292FE6C043E050E0B4
S113057068E371E0CE010E946D0D892B11F523967D
S1130580D093CD01C093CC010E941F022BED3FE01C
S113059049E450E40E94090B20E030E044E353E4D2
S11305A00E944E090E94140C9B01AC0160E070E0B3
S11305B080E89FE30E944E09562F472F382F292F9A
S11305C0BBC043E050E06CE371E0CE010E946D0DCE
S11305D0892B71F42396D093CD01C093CC010E9452
S11305E01F020E94B10A562F472F382F292FA4C06B
S11305F0113771F42196D093CD01C093CC010E94A0
S11306001F020E94D40B562F472F382F292F94C036
S11306101D3249F42196D093CD01C093CC016624B8
S11306206A94762C03C066246394712CC12CD12C5B
S1130630760122C020E030E040E251E4C701B60177
S11306400E94090B6B017C01CE0101969093CD01B0
S11306508093CC01688170E060537109072E000C0F
S1130660880B990B0E94C2099B01AC01C701B6011A
S11306700E94D8086B017C01C091CC01D091CD01BE
S1130680888190ED980F9A30A8F28E3209F03FC01D
S11306908E010F5F1F4F1093CD010093CC010F2EDD
S11306A0FDEC8F2EFCEC9F2EA92CFDE3BF2EF02D2C
S11306B026C0CF0101969093CD018093CC01608137
S11306C070E060537109072E000C880B990B0E948F
S11306D0C209A50194010E94090B9B01AC01C70149
S11306E0B6010E94D8086B017C0120E030E040E2B2
S11306F051E4C501B4010E944E094B015C01E09133
S1130700CC01F091CD01808180538A3090F2B30105
S1130710770C880B990B0E94C2099B01AC01C7019D
S1130720B6010E94090B562F472F382F292F04C0DA
S1130730562F472F382F292F652F742F832F922F51
S1130740DF91CF911F910F91FF90EF90DF90CF90A9
S1130750BF90AF909F908F907F906F9008950F936C
S11307601F93CF93DF930E941F02062F172FD82FBA
S1130770C92F3AC09F012F5F3F4F3093CD01209383
S1130780CC0120812A3279F40E941F029B01AC0122
S1130790602F712F8D2F9C2F0E94090B062F172F6E
S11307A0D82FC92F21C02F3279F40E941F029B0138
S11307B0AC01602F712F8D2F9C2F0E944E09062FA4
S11307C0172FD82FC92F10C02E3571F40E941F0285
S11307D09B01AC01602F712F8D2F9C2F0E94760BF3
S11307E0062F172FD82FC92FE091CC01F091CD01FE
S11307F020812A3209F4BECF2F3209F4BBCF2E3523
S113080009F4B8CF602F712F8D2F9C2FDF91CF91DA
S11308101F910F91089580E28093B800089584EAAF
S11308208093BC0088EE93E001C0C9012091BC0014
S113083022232CF09C0121503109892BB1F7089512
S113084084E98093BC0008958093BB0084E880937E
S1130850BC0088EE93E001C0C9012091BC002223B2
S11308602CF09C0121503109892BB1F70895CF93C5
S1130870C82F0E940F0488E70E94240480E00E948D
S113088024048C2F0E9424040E942004CF910895F4
S1130890CF93C82F0E940F0488E70E94240480E4A9
S11308A00E9424048C2F0E9424040E942004CF91CF
S11308B008951F93CF93DF93CDB7DEB76C970FB630
S11308C0F894DEBF0FBECDBF8CE1E0E0F1E0DE01C5
S11308D0119601900D928A95E1F70E940B042FEF77
S11308E080E792E0215080409040E1F700C0000092
S11308F010E00AC0E1E0F0E0EC0FFD1FE10FF11D94
S113090080810E9437041F5F1C31A0F36C960FB6E0
S1130910F894DEBF0FBECDBFDF91CF911F91089534
S11309201F93CF93DF93C62F8032C1F190ED980FC0
S11309309A3018F411ED180F5AC09FEB980F9A31A2
S113094018F41AEC180F53C08B3251F18D3251F157
S11309508A3251F18F3251F18E3251F18D3351F18E
S11309608A3351F18E3551F1813751F1833751F189
S1130970893651F18E3651F1833651F18F3651F16A
S1130980843751F1813651F1883251F1893251F174
S11309908C3651F1873651F110E029C010E027C0A0
S11309A015E225C016E223C017E221C018E21FC0D9
S11309B019E21DC01AE21BC01BE219C01CE217C0D9
S11309C01DE215C01EE213C01FE211C010E30FC0E8
S11309D011E30DC012E30BC013E309C014E307C015
S11309E015E305C016E303C017E301C018E380EB69
S11309F0840F0E9437048C2F8F700E9437048C2F31
S1130A0082958F70805F0E943704C0E0D0E011C0EF
S1130A10212F30E0F901EE0FFF1FEE0FFF1FE20F51
S1130A20F31FEC0FFD1FEB58FD4F84910E94480407
S1130A302196C530D10564F380E00E944804DF911B
S1130A40CF911F9108950F931F93CF93DF93EC01E0
S1130A50162F042F06C02196402F612F0E94900468
S1130A601A5F88818111F7CFDF91CF911F910F9188
S1130A7008951F93CF93DF9310E015C080EB810F8F
S1130A800E94370480E00E94370480E10E9437040A
S1130A90C0E0D0E004C080E00E9448042196C03841
S1130AA0D105CCF31F5F183048F3DF91CF911F912C
S1130AB00895CF93DF9380550E94370480E00E940D
S1130AC0370480E10E943704C0E0D0E004C080E035
S1130AD00E9448042196C038D105CCF3DF91CF9110
S1130AE00895CF93DF93CDB7DEB760970FB6F89430
S1130AF0DEBF0FBECDBF80E1ECE1F1E0DE01119677
S1130B0001900D928A95E1F730E044C0E32FF0E0C4
S1130B1081E090E0032E02C0880F991F0A94E2F747
S1130B2081B9809582B98DE08A95F1F7000020E0C3
S1130B302EC080B1622F70E0AB014C5F5F4F90E03C
S1130B40042E02C0959587950A94E2F780FD1EC095
S1130B508FE39CE90197F1F700C0000080B190E0B9
S1130B60042E02C0959587950A94E2F780FFF6CF8C
S1130B70EE0FFF1FEE0FFF1F81E090E08C0F9D1F13
S1130B80E80FF91FE60FF71F808108C02F5F24309C
S1130B9080F23F5F343008F4B9CF80E060960FB63E
S1130BA0F894DEBF0FBECDBFDF91CF91089593B10E
S1130BB0892F847092FD0CC0EFE3FCE93197F1F7C3
S1130BC000C000001A9905C01A9BFECF81E0089569
S1130BD080E00895FF920F931F93CF93DF93CDB7D7
S1130BE0DEB760970FB6F894DEBF0FBECDBFF62E0A
S1130BF01A821982FE0133962EE0DF011D922A9596
S1130C00E9F7462F60E00E94230510E00E94D70513
S1130C1081112FC00E9471058D3321F18823B1F316
S1130C201A30A0F790ED980F9A3020F08E3211F020
S1130C308D3261F701E0010FE1E0F0E0EC0FFD1F00
S1130C40E10FF11D8083E1E0F0E0EC0FFD1FE00F08
S1130C50F11D10824F2D64E1CE0101960E942305FF
S1130C60102FD4CF112351F0CE0101960E945E0DB6
S1130C7008C060E070E080EC9FE703C060E070E0D3
S1130C80CB0160960FB6F894DEBF0FBECDBFDF91E7
S1130C90CF911F910F91FF900895CF93DF93CDB71C
S1130CA0DEB7C856D1090FB6F894DEBF0FBECDBF6C
S1130CB01A821982FE0133968EE3DF011D928A9512
S1130CC0E9F70E9459040E9439058FE081B980EF49
S1130CD082B984B18B7F84B985B1846085B98AB1C6
S1130CE0857F8AB98BB18A608BB984B18E7F84B9D0
S1130CF085B1816085B9312CF12C0E94D7058823F8
S1130D0079F019820E943905BFEF21EE84E0B150D9
S1130D1020408040E1F700C00000312CF12CEDCFE1
S1130D20F11023C040E060E080E491E00E942305DC
S1130D3042E060E08DE491E00E94230543E060E03E
S1130D4089E591E00E9423050E947105813329F40D
S1130D500E943905FF24F394D0CF823371F60E94A8
S1130D6039056894FF24F1F8C8CF91E0F91213C152
S1130D7040E060E085E691E00E9423054B9919C0AC
S1130D80AFE7B9EA23E0A150B0402040E1F700C04A
S1130D90000081E0311080E0E82E311002C088E4C8
S1130DA001C080E240E063E70E9490044B9BFECFC9
S1130DB03E2C189916C08E010F5F1F4FF801019049
S1130DC00020E9F7319781E790E09183808382E006
S1130DD00E94590542E060E0C8010E942305189B67
S1130DE0FECF499916C08E010F5F1F4FF801019085
S1130DF00020E9F731978EE590E09183808382E0CB
S1130E000E94590542E060E0C8010E942305499B05
S1130E10FECF0E947105882309F46FCF8D33F1F45E
S1130E20CE0101969093CD018093CC010E94E801FC
S1130E308E010F5B1F4F23E047E00E943E0D85E0CB
S1130E400E94590545E060E082E791E00E94230595
S1130E5045E06EE1C8010E9423054FCF332009F419
S1130E6083C08B3279F4FE01319601900020E9F7BA
S1130E70319783E799E6918380838EE690E09383AC
S1130E8082836BC08D3279F4FE013196019000208B
S1130E90E9F7319783E69FE69183808383E790E0C7
S1130EA0938382835AC08A3279F4FE013196019089
S1130EB00020E9F7319784E791E6918380838EE6F9
S1130EC090E09383828349C08F3279F4FE01319696
S1130ED001900020E9F7319783E69FE691838083B0
S1130EE084E790E09383828338C08E3279F4FE01E4
S1130EF0319601900020E9F731978CE69FE69183C3
S1130F00808387E690E09383828327C0803359F4FB
S1130F10FE01319601900020E9F7319788E290E0D4
S1130F20918380831AC0813359F4FE013196019074
S1130F300020E9F7319789E290E0918380830DC026
S1130F4022968FAF229723961FAE2397BE016F5B25
S1130F507F4FCE0101960E94620D40E063E780E27C
S1130F600E949004312C0DC022968FAF22972396B5
S1130F701FAE2397BE016F5B7F4FCE0101960E9487
S1130F80620D82E00E94590542E060E0CE010196C4
S1130F900E942305B2CE82E0F812AFCE40E060E0BA
S1130FA087E791E00E94230562E08DE891E00E94CA
S1130FB0EA054B015C019B01AC010E94390C8823BA
S1130FC021F00E943905F12C98CE63E080E991E08C
S1130FD00E94EA056B017C019B01AC010E94390C63
S1130FE0882321F00E943905F12C87CE64E083E93F
S1130FF091E00E94EA052B013C019B01AC010E9497
S1131000390C882321F00E943905F12C76CE20E09A
S113101030E0A901C501B4010E944409811107C04F
S113102046E060E086E991E00E942305B2C0A70192
S11310309601C701B6010E94090BA9966CAF7DAF5A
S11310408EAF9FAFA99720E030E040E850E4C5019F
S1131050B4010E94090B9B01AC01C301B2010E94BF
S1131060090B9B01AC01A9966CAD7DAD8EAD9FAD16
S1131070A9970E94D7082B013C0120E030E0A90188
S11310800E94440988233CF446E060E084EA91E04D
S11310900E9423057EC020E030E0A901C301B20113
S11310A00E944409811123C0F7FAF094F7F8F094F0
S11310B0A5019401C501B4010E94D8089B01AC01AB
S11310C0C701B6010E944E098E010B5A1F4F22E040
S11310D046E00E943E0D46E060E080EB91E00E9415
S11310E0230546E064E1C8010E94230552C0C30100
S11310F0B2010E94D40B2B013C01A70196010E946E
S1131100D708A9966CAF7DAF8EAF9FAFA997A50105
S11311109401C501B4010E94D8084B015C019B01F4
S1131120AC01A9966CAD7DAD8EAD9FADA9970E9423
S11311304E098E010B5A1F4F22E045E00E943E0DDE
S1131140C701B6019058A30192010E94D708A501D6
S113115094010E944E090451110922E045E00E94C5
S11311603E0D46E060E083EB91E00E94230546E0FB
S113117064E1CE018B5A9F4F0E94230546E061E44F
S113118087EB91E00E94230546E065E5C8010E94D3
S1131190230547E060E08BEB91E00E9423050E9469
S11311A0D7058823E1F30E943905F12CA6CD5058C8
S11311B0BB27AA270E94EF080C94630A0E942A0AFC
S11311C038F00E94310A20F039F49F3F19F426F4D4
S11311D00C94270A0EF4E095E7FB0C94210AE92FFE
S11311E00E94880A58F3BA176207730784079507A1
S11311F020F079F4A6F50C94AA0A0EF4E0950B2ECF
S1131200BA2FA02D0B01B90190010C01CA01A00154
S11312101124FF27591B99F0593F50F4503E68F1AF
S11312201A16F040A22F232F342F4427585FF3CFF0
S1131230469537952795A795F0405395C9F77EF4C1
S11312401F16BA0B620B730B840BBAF09150A1F00A
S1131250FF0FBB1F661F771F881FC2F70EC0BA0F90
S1131260621F731F841F48F4879577956795B79518
S1131270F7959E3F08F0B0CF9395880F08F0992713
S1131280EE0F9795879508950E94FD0908F481E073
S113129008950E943A0AE3950C94740A0E94620924
S11312A00C94630A0E94310A58F00E942A0A40F002
S11312B029F45F3F29F00C94210A51110C94AB0AD4
S11312C00C94270A0E94880A68F39923B1F35523E2
S11312D091F3951B550BBB27AA2762177307840745
S11312E038F09F5F5F4F220F331F441FAA1FA9F3DB
S11312F035D00E2E3AF0E0E832D091505040E695C9
S1131300001CCAF72BD0FE2F29D0660F771F881F29
S1131310BB1F261737074807AB07B0E809F0BB0B1C
S1131320802DBF01FF2793585F4F3AF09E3F510530
S113133078F00C94210A0C94AB0A5F3FE4F3983ED6
S1131340D4F3869577956795B795F7959F5FC9F719
S1131350880F911D9695879597F90895E1E0660F9A
S1131360771F881FBB1F621773078407BA0720F013
S1131370621B730B840BBA0BEE1F88F7E09508957C
S1131380E89409C097FB3EF490958095709561951B
S11313907F4F8F4F9F4F9923A9F0F92F96E9BB27D1
S11313A09395F695879577956795B795F111F8CF4D
S11313B0FAF4BB0F11F460FF1BC06F5F7F4F8F4FB8
S11313C09F4F16C0882311F096E911C0772321F0AE
S11313D09EE8872F762F05C0662371F096E8862F46
S11313E070E060E02AF09A95660F771F881FDAF79D
S11313F0880F9695879597F90895990F0008550FCA
S1131400AA0BE0E8FEEF16161706E807F907C0F086
S113141012161306E407F50798F0621B730B840B8E
S1131420950B39F40A2661F0232B242B252B21F468
S113143008950A2609F4A140A6958FEF811D811D08
S1131440089597F99F6780E870E060E008959FEF42
S113145080EC089500240A94161617061806090647
S1131460089500240A941216130614060506089516
S11314700C94270A0E94900AD8F3E894E0E0BB2772
S11314809F57F0F02AED3FE049EC06C0EE0FBB0F8A
S1131490661F771F881F28F0B23A62077307840714
S11314A028F0B25A620B730B840BE3959A9572F78A
S11314B0803830F49A95BB0F661F771F881FD2F7C8
S11314C090480C947A0C092E0394000C11F4882390
S11314D052F0BB0F40F4BF2B11F460FF04C06F5FE8
S11314E07F4F8F4F9F4F0895EF93E0FF07C0A2EA0D
S11314F02AED3FE049EC5FEB0E94EF080E94630A8B
S11315000F90039401FC9058ECE7F0E00C94B40CB9
S113151057FD9058440F551F59F05F3F71F04795A0
S1131520880F97FB991F61F09F3F79F08795089585
S1131530121613061406551FF2CF4695F1DF08C0A4
S1131540161617061806991FF1CF869571056105C1
S113155008940895E894BB2766277727CB0197F969
S113156008950E94C10A29ED3BE54EED5EE30C941B
S1131570090B16F00C94780C0C94270A68940C94BC
S1131580210A0E94900AA8F39923C1F3AEF3DF93D2
S1131590CF931F930F93FF92C92FDD2788232AF03F
S11315A02197660F771F881FDAF720E030E040E8C4
S11315B05FEB9FE3883920F0803E38F021968F77E7
S11315C00E94D808EAE9F0E004C00E94D808E7ECD9
S11315D0F0E00E948D0C8B01BE01EC01FB2E6F57D5
S11315E071097595771F880B990B0E94C20928E130
S11315F032E741E35FE30E941C0BAF2D9801AE017B
S1131600FF900F911F91CF91DF910E94EF080C94EE
S1131610630A0E941C0B0C94630A0E942A0A38F085
S11316200E94310A20F0952311F00C94210A0C94A5
S1131630270A11240C94AB0A0E94880A70F3959F20
S1131640C1F3950F50E0551F629FF001729FBB27B5
S1131650F00DB11D639FAA27F00DB11DAA1F649F51
S11316606627B00DA11D661F829F2227B00DA11D04
S1131670621F739FB00DA11D621F839FA00D611D8A
S1131680221F749F3327A00D611D231F849F600DAB
S1131690211D822F762F6A2F11249F5750409AF0D4
S11316A0F1F088234AF0EE0FFF1FBB1F661F771F60
S11316B0881F91505040A9F79E3F510580F00C942B
S11316C0210A0C94AB0A5F3FE4F3983ED4F3869569
S11316D077956795B795F795E7959F5FC1F7FE2BCB
S11316E0880F911D9695879597F90895FA01EE0F45
S11316F0FF1F309621053105A1F16115710561F4D3
S11317008038BFE39B0749F168949038810561F004
S11317108038BFEF9B0741F099234AF5FF3FE1056D
S11317203105210519F1E8940894E795D901AA2314
S113173029F4AB2FBE2FF85FD0F310C0FF5F70F415
S1131740A695E0F7F73950F019F0FF3A38F49F778F
S11317509F930DD00F9007FC9058089546F00C9479
S1131760270A60E070E080E89FE308954FE79F77E1
S11317705F934F933F932F930E94C10A2F913F9100
S11317804F915F910E94090B0C94460C9F930E9409
S11317903A0A0F9007FCEE5F0C94740A19F416F4DD
S11317A00C94270A0C94780C0E94900AB8F399239D
S11317B0C9F3B6F39F57550B87FF0E94860C00248C
S11317C0A0E640EA900180585695979528F4805CED
S11317D0660F771F881F20F026173707480730F455
S11317E0621B730B840B202931294A2BA69517946D
S11317F00794202531254A2758F7660F771F881F3D
S113180020F026173707480730F4620B730B840B5C
S1131810200D311D411DA09581F7B901842F9158E8
S1131820880F969587950895DF93D92F0E943A0AD9
S1131830E695D7952AED3FE049E45FE3B33A6207C2
S1131840730784079507D7953AF0A2EA49EC9068A4
S11318500E94EF080E94630AE4EFF0E00E94B40CD7
S1131860DD0F13F00E94C80CDD0F0BF49058DF91CC
S113187008950E94FD09880B990B089529F416F028
S11318800C94210A0C94AA0A0C94270A0E94900A28
S1131890A8F39638A0F707F80F92E8942BE33AEAF6
S11318A048EB5FE70E941F0B0F920F920F924DB708
S11318B05EB70F920E940A0DE7E1F1E00E948D0CE1
S11318C04F915F91EF91FF91E595EE1FFF1F49F056
S11318D0FE57E0684427EE0F441FFA95E1F741955F
S11318E0550B0E94D40C0F9007FE0C94C80C08955D
S11318F09F3F31F0915020F4879577956795B79580
S1131900880F911D9695879597F9089591505040A9
S1131910660F771F881FD2F70895DF93CF931F9325
S11319200F93FF92EF92DF927B018C01689406C0C3
S1131930DA2EEF010E941C0BFE01E894A59125917B
S1131940359145915591A6F3EF010E94EF08FE01F0
S11319509701A801DA9469F7DF90EF90FF900F9157
S11319601F91CF91DF9108959F938F937F936F93EE
S1131970FF93EF939B01AC010E94090BEF91FF9140
S11319800E948D0C2F913F914F915F910C94090B04
S11319909B01AC0160E070E080E89FE30C944E0989
S11319A00C94210A0C94780C0E94900AD8F3992381
S11319B0C9F3940F511DA3F39150504094F059F082
S11319C0882332F0660F771F881F91505040C1F76B
S11319D09E3F51052CF7880F911D9695879597F991
S11319E008955F3FACF0983E9CF0BB2786957795B1
S11319F06795B79508F4B1609395C1F7BB0F58F795
S1131A0011F460FFE8CF6F5F7F4F8F4F9F4FE3CF9D
S1131A100C94AB0AFA01DC01AA0FBB1F9B01AC01B9
S1131A20BF5728F4222733274427507820C0B751C2
S1131A3090F4AB2F0024469537952795011CA39568
S1131A40D2F3002071F0220F331F441FB395DAF351
S1131A500ED00C94D70861307105A0E88A07B94606
S1131A6030F49B01AC01662777278827907830965D
S1131A7021F020833183428353830895EF920F939F
S1131A801F93CF93DF93E80147FD02C034E001C008
S1131A9034E1042E000C550B57FF03C051954195BA
S1131AA05109E32E022F242FAE010E947B0DCE019B
S1131AB0DF91CF911F910F91EF90089566277727BB
S1131AC00C94D50EFB01DC010D900020E9F7119771
S1131AD001900D920020E1F70895FB01DC014150D3
S1131AE0504030F08D910190801919F40020B9F71D
S1131AF0881B990B0895A9E0B0E0E1E8FDE00C949F
S1131B0030116A01122FB02E2BE3201720F0FF248E
S1131B10F394F00E02C02CE3F22E0F2D27E0AE0159
S1131B204F5F5F4F0E942310BC014981842F89704D
S1131B30813031F0E1FC06C0E0FE06C090E205C051
S1131B409DE203C09BE201C090E05E2D507143FF13
S1131B503CC0911102C083E001C084E0811718F4F5
S1131B60212F281B01C020E051110BC0F601822F48
S1131B7030E2882319F031938150FBCFC20ED11C7F
S1131B8020E0992329F0D6019C93F60131966F0148
S1131B90C6010396E2FE0AC03EE4D6013C9341E44A
S1131BA011964C93119712963C9306C03EE6F601AB
S1131BB0308341E641833283FC01322F40E23323F8
S1131BC009F442C041933150FACF42FF44C091110D
S1131BD002C083E001C084E0811718F4212F281B80
S1131BE001C020E051110BC0F601822F30E288239E
S1131BF019F031938150FBCFC20ED11C20E0992300
S1131C0029F0D6019C93F60131966F01C601039623
S1131C10E2FE0BC039E4D6013C933EE411963C93BA
S1131C20119736E412963C9307C039E6F6013083E7
S1131C303EE6318336E63283FC01322F40E2332321
S1131C4019F041933150FBCFFC01E20FF11D1082DA
S1131C508EEF9FEFA6C021E030E0911102C020E09A
S1131C6030E0161617061CF4FB01319602C0E1E0C1
S1131C70F0E02E0F3F1FBB2021F0EB2DF0E031965A
S1131C8002C0E0E0F0E02E0F3F1FE12FF0E02E173E
S1131C903F071CF4121B212F01C020E08E2D8871F8
S1131CA059F4F601822F30E2882319F031938150E0
S1131CB0FBCFC20ED11C20E0992329F0D6019C93BE
S1131CC0F60131966F0151110BC0F601822F90E39A
S1131CD0882319F091938150FBCFC20ED11C20E0D0
S1131CE00F2D060F9A81342F307144FF03C09133B6
S1131CF009F40150101624F4093018F008E001C06A
S1131D0001E0AB0177FF02C040E050E0FB01E41BBF
S1131D10F50BA1E0B0E0AC0FBD1FEA0FFB1F8EE294
S1131D20A82E4B01801A91080B2D10E011950195F6
S1131D3011094F3FBFEF5B0721F4D601AC92119616
S1131D406D01641775072CF08416950614F48181CF
S1131D5001C080E3415051093196D60111967D01AD
S1131D604017510724F0D6018C936701E2CF641722
S1131D70750739F4963320F4953319F4311101C001
S1131D8081E3F6018083F701822F90E2882319F022
S1131D9091938150FBCFF701E20FF11D108280E097
S1131DA090E02996ECE00C944C11A0E0B0E0EBED4F
S1131DB0FEE00C943011EC016B016115710519F012
S1131DC0FB01918380837E01FFEFEF1AFF0A0881F4
S1131DD0802F90E00E94FB10892B11F0E701F3CFD4
S1131DE00D3239F47E0182E0E80EF11C098111E024
S1131DF008C00B3229F47E0192E0E90EF11C09813E
S1131E0010E0E701219743E050E068E471E0CE017F
S1131E100E940411892BC1F4239645E050E063E449
S1131E2071E0CE010E940411892B09F42596C11496
S1131E30D10419F0F601D183C0831111F6C060E01A
S1131E4070E080E89FE7FAC043E050E060E471E0AE
S1131E50CE010E940411892B59F4C114D10409F450
S1131E60E9C0F2E0EF0EF11CF601F182E082E2C07B
S1131E7020E030E0A901C0E0D0E0F70180EDA82E19
S1131E80A00E89E08A1530F1912F9260B92E812F2E
S1131E90887012FF04C0811124C0219622C08111D0
S1131EA02197A5E0B0E00E941F11DC01CB01880F4F
S1131EB0991FAA1FBB1F9C01AD012A0D311D411D95
S1131EC0511D283989E93807480789E1580748F03E
S1131ED0166006C09EEFA9120AC013FD40C0186028
S1131EE0B12E8FEFE81AF80A00811B2DC6CF802F80
S1131EF08F7D8534A1F580818D3211F4106106C087
S1131F008B3221F0319661E070E004C08181329619
S1131F1062E070E080538A3018F0E61BF70B1FC0B4
S1131F2060E070E060389CE079075CF4DB01AA0FA4
S1131F30BB1FAA0FBB1F6A0F7B1F660F771F680F9B
S1131F40711D3196DF0111978C9180538A3050F3C3
S1131F5014FF03C0719561957109C60FD71F11FF56
S1131F6008C0C114D10429F0CF010197F60191836F
S1131F708083CA01B9010E94C009212F2370233034
S1131F8019F04B015C0106C04B015C01B7FAB09437
S1131F90B7F8B09420E030E0A901C501B4010E9473
S1131FA04409882309F43EC0D7FF06C0D195C195E2
S1131FB0D1090FE511E002C007E711E06801F8E17B
S1131FC0CF1AD10890E2E92EF12CCE15DF0574F07A
S1131FD0F8012591359145915491C501B4010E94B0
S1131FE0090B4B015C01CE19DF09EFCF0450110935
S1131FF0F594E7940C151D0541F78A2D880F8B2D58
S1132000881F8F3F49F020E030E0A901C501B401E9
S11320100E944409811106C082E290E09093CF01AE
S11320208093CE01C501B40109C060E070E080E88E
S11320309FEF04C060E070E080EC9FE7CDB7DEB7AF
S1132040ECE00C944C11283008F027E03327DA0137
S1132050990F311D87FD916000966105710539F472
S113206032602E5F3D9330E32A95E1F708959F3F58
S113207030F080387105610509F03C5F3C5F3D93A9
S1132080913008F08068911DDF93CF931F930F93D5
S1132090FF92EF92192F987F9695E92F9695969532
S11320A0E90FFF27EB52FE4F99273327EE24FF2435
S11320B0A701E70105900894079428F4360FE71E5A
S11320C0F81E491F511D660F771F881F991F06941C
S11320D0A1F70590079428F4E70EF81E491F561F30
S11320E0C11D770F881F991F661F0694A1F70590DD
S11320F0079428F4F80E491F561FC71FD11D880FD7
S1132100991F661F771F0694A1F70590079420F482
S1132110490F561FC71FD81F990F661F771F881FA7
S11321200694A9F784911095177041F0D695C79538
S113213057954795F794E7941A95C1F7EBE7F1E0C3
S113214068941590159135916591959105907FE26C
S11321507395E118F10A430B560BC90BD009C0F76C
S1132160E10CF11E431F561FC91FD01D7EF47033AE
S113217011F48A95E6CFE894015030F0080F0AF480
S11321800027021708F4202F2395022F7A3328F012
S113219079E37D932A95E9F710C07D932A9589F612
S11321A0069497956795379517951794E118F10A52
S11321B0430B560BC90BD00998F023957E91739568
S11321C07A3308F070E37C932013B8F77E91706142
S11321D07D9330F0839571E37D9370E32A95E1F765
S11321E01124EF90FF900F911F91CF91DF919927C8
S11321F087FD9095089591110C941C11803219F06B
S113220089508550C8F70895FB01DC0141505040C6
S113221088F08D9181341CF08B350CF4805E6591CF
S113222061341CF06B350CF4605E861B611171F334
S1132230990B0895881BFCCF9927882708950E943D
S11322406111A59F900DB49F900DA49F800D911DC9
S1132250112408952F923F924F925F926F927F9232
S11322608F929F92AF92BF92CF92DF92EF92FF92A2
S11322700F931F93CF93DF93CDB7DEB7CA1BDB0B4E
S11322800FB6F894DEBF0FBECDBF09942A883988F3
S113229048885F846E847D848C849B84AA84B984FA
S11322A0C884DF80EE80FD800C811B81AA81B98106
S11322B0CE0FD11D0FB6F894DEBF0FBECDBFED011A
S11322C00895A29FB001B39FC001A39F700D811D0B
S11322D01124911DB29F700D811D1124911D08952B
S10722E0F894FFCF9C
S11322E4AE2010B0C800104081FFA1A6A83FA4D31B
S11322F400D5F0D922DA12DB208D14AF2E2F2A3D1B
S113230438392B2D343536373031323373696E0016
S1132314636F730074616E00636F74006C6F6700A5
S113232443484F4F5345204D4F44453A00312E20E6
S11323345343492043414C4300322E2050542042FD
S113234441432032004D4F444520313A2043414C0F
S11323544300416E733A0050543A2041585E32208F
S11323642B204258202B2043203D203000413A00AA
S1132374423A00433A004E6F742050542062616321
S113238420322100564F204E474849454D20210014
S1132394783D0078313A0078323A0050524553532C
S10F23A420414320544F204241434B0091
S9030000FC
